{
  "_format": "hh-sol-artifact-1",
  "contractName": "NFTMarketplace",
  "sourceName": "contracts/NFTMarketplace.sol",
  "abi": [
    {
      "inputs": [],
      "stateMutability": "nonpayable",
      "type": "constructor"
    },
    {
      "inputs": [
        {
          "internalType": "address",
          "name": "sender",
          "type": "address"
        },
        {
          "internalType": "uint256",
          "name": "tokenId",
          "type": "uint256"
        },
        {
          "internalType": "address",
          "name": "owner",
          "type": "address"
        }
      ],
      "name": "ERC721IncorrectOwner",
      "type": "error"
    },
    {
      "inputs": [
        {
          "internalType": "address",
          "name": "operator",
          "type": "address"
        },
        {
          "internalType": "uint256",
          "name": "tokenId",
          "type": "uint256"
        }
      ],
      "name": "ERC721InsufficientApproval",
      "type": "error"
    },
    {
      "inputs": [
        {
          "internalType": "address",
          "name": "approver",
          "type": "address"
        }
      ],
      "name": "ERC721InvalidApprover",
      "type": "error"
    },
    {
      "inputs": [
        {
          "internalType": "address",
          "name": "operator",
          "type": "address"
        }
      ],
      "name": "ERC721InvalidOperator",
      "type": "error"
    },
    {
      "inputs": [
        {
          "internalType": "address",
          "name": "owner",
          "type": "address"
        }
      ],
      "name": "ERC721InvalidOwner",
      "type": "error"
    },
    {
      "inputs": [
        {
          "internalType": "address",
          "name": "receiver",
          "type": "address"
        }
      ],
      "name": "ERC721InvalidReceiver",
      "type": "error"
    },
    {
      "inputs": [
        {
          "internalType": "address",
          "name": "sender",
          "type": "address"
        }
      ],
      "name": "ERC721InvalidSender",
      "type": "error"
    },
    {
      "inputs": [
        {
          "internalType": "uint256",
          "name": "tokenId",
          "type": "uint256"
        }
      ],
      "name": "ERC721NonexistentToken",
      "type": "error"
    },
    {
      "anonymous": false,
      "inputs": [
        {
          "indexed": true,
          "internalType": "address",
          "name": "owner",
          "type": "address"
        },
        {
          "indexed": true,
          "internalType": "address",
          "name": "approved",
          "type": "address"
        },
        {
          "indexed": true,
          "internalType": "uint256",
          "name": "tokenId",
          "type": "uint256"
        }
      ],
      "name": "Approval",
      "type": "event"
    },
    {
      "anonymous": false,
      "inputs": [
        {
          "indexed": true,
          "internalType": "address",
          "name": "owner",
          "type": "address"
        },
        {
          "indexed": true,
          "internalType": "address",
          "name": "operator",
          "type": "address"
        },
        {
          "indexed": false,
          "internalType": "bool",
          "name": "approved",
          "type": "bool"
        }
      ],
      "name": "ApprovalForAll",
      "type": "event"
    },
    {
      "anonymous": false,
      "inputs": [
        {
          "indexed": false,
          "internalType": "uint256",
          "name": "_fromTokenId",
          "type": "uint256"
        },
        {
          "indexed": false,
          "internalType": "uint256",
          "name": "_toTokenId",
          "type": "uint256"
        }
      ],
      "name": "BatchMetadataUpdate",
      "type": "event"
    },
    {
      "anonymous": false,
      "inputs": [
        {
          "indexed": true,
          "internalType": "uint256",
          "name": "tokenId",
          "type": "uint256"
        },
        {
          "indexed": true,
          "internalType": "address",
          "name": "seller",
          "type": "address"
        },
        {
          "indexed": true,
          "internalType": "address",
          "name": "owner",
          "type": "address"
        },
        {
          "indexed": false,
          "internalType": "uint256",
          "name": "price",
          "type": "uint256"
        },
        {
          "indexed": false,
          "internalType": "bool",
          "name": "sold",
          "type": "bool"
        }
      ],
      "name": "MarketItemCreated",
      "type": "event"
    },
    {
      "anonymous": false,
      "inputs": [
        {
          "indexed": false,
          "internalType": "uint256",
          "name": "_tokenId",
          "type": "uint256"
        }
      ],
      "name": "MetadataUpdate",
      "type": "event"
    },
    {
      "anonymous": false,
      "inputs": [
        {
          "indexed": true,
          "internalType": "uint256",
          "name": "tokenId",
          "type": "uint256"
        },
        {
          "indexed": true,
          "internalType": "address",
          "name": "seller",
          "type": "address"
        },
        {
          "indexed": true,
          "internalType": "address",
          "name": "buyer",
          "type": "address"
        },
        {
          "indexed": false,
          "internalType": "uint256",
          "name": "price",
          "type": "uint256"
        }
      ],
      "name": "TokenSelled",
      "type": "event"
    },
    {
      "anonymous": false,
      "inputs": [
        {
          "indexed": true,
          "internalType": "address",
          "name": "from",
          "type": "address"
        },
        {
          "indexed": true,
          "internalType": "address",
          "name": "to",
          "type": "address"
        },
        {
          "indexed": true,
          "internalType": "uint256",
          "name": "tokenId",
          "type": "uint256"
        }
      ],
      "name": "Transfer",
      "type": "event"
    },
    {
      "inputs": [
        {
          "internalType": "address",
          "name": "to",
          "type": "address"
        },
        {
          "internalType": "uint256",
          "name": "tokenId",
          "type": "uint256"
        }
      ],
      "name": "approve",
      "outputs": [],
      "stateMutability": "nonpayable",
      "type": "function"
    },
    {
      "inputs": [
        {
          "internalType": "address",
          "name": "owner",
          "type": "address"
        }
      ],
      "name": "balanceOf",
      "outputs": [
        {
          "internalType": "uint256",
          "name": "",
          "type": "uint256"
        }
      ],
      "stateMutability": "view",
      "type": "function"
    },
    {
      "inputs": [
        {
          "internalType": "string",
          "name": "_tokenURI",
          "type": "string"
        },
        {
          "internalType": "uint256",
          "name": "price",
          "type": "uint256"
        }
      ],
      "name": "createToken",
      "outputs": [
        {
          "internalType": "uint256",
          "name": "",
          "type": "uint256"
        }
      ],
      "stateMutability": "payable",
      "type": "function"
    },
    {
      "inputs": [
        {
          "internalType": "uint256",
          "name": "_tokenId",
          "type": "uint256"
        }
      ],
      "name": "executeSale",
      "outputs": [],
      "stateMutability": "payable",
      "type": "function"
    },
    {
      "inputs": [
        {
          "internalType": "uint256",
          "name": "tokenId",
          "type": "uint256"
        }
      ],
      "name": "getApproved",
      "outputs": [
        {
          "internalType": "address",
          "name": "",
          "type": "address"
        }
      ],
      "stateMutability": "view",
      "type": "function"
    },
    {
      "inputs": [],
      "name": "getListingPrice",
      "outputs": [
        {
          "internalType": "uint256",
          "name": "",
          "type": "uint256"
        }
      ],
      "stateMutability": "view",
      "type": "function"
    },
    {
      "inputs": [],
      "name": "getOwnerListedTokens",
      "outputs": [
        {
          "components": [
            {
              "internalType": "uint256",
              "name": "tokenId",
              "type": "uint256"
            },
            {
              "internalType": "address payable",
              "name": "seller",
              "type": "address"
            },
            {
              "internalType": "address payable",
              "name": "owner",
              "type": "address"
            },
            {
              "internalType": "uint256",
              "name": "price",
              "type": "uint256"
            },
            {
              "internalType": "bool",
              "name": "sold",
              "type": "bool"
            }
          ],
          "internalType": "struct NFTMarketplace.MarketItem[]",
          "name": "",
          "type": "tuple[]"
        }
      ],
      "stateMutability": "view",
      "type": "function"
    },
    {
      "inputs": [],
      "name": "getOwnerUnlistedTokens",
      "outputs": [
        {
          "components": [
            {
              "internalType": "uint256",
              "name": "tokenId",
              "type": "uint256"
            },
            {
              "internalType": "address payable",
              "name": "seller",
              "type": "address"
            },
            {
              "internalType": "address payable",
              "name": "owner",
              "type": "address"
            },
            {
              "internalType": "uint256",
              "name": "price",
              "type": "uint256"
            },
            {
              "internalType": "bool",
              "name": "sold",
              "type": "bool"
            }
          ],
          "internalType": "struct NFTMarketplace.MarketItem[]",
          "name": "",
          "type": "tuple[]"
        }
      ],
      "stateMutability": "view",
      "type": "function"
    },
    {
      "inputs": [],
      "name": "getTotalMarketItems",
      "outputs": [
        {
          "internalType": "uint256",
          "name": "",
          "type": "uint256"
        }
      ],
      "stateMutability": "view",
      "type": "function"
    },
    {
      "inputs": [],
      "name": "getUnsoldTokens",
      "outputs": [
        {
          "components": [
            {
              "internalType": "uint256",
              "name": "tokenId",
              "type": "uint256"
            },
            {
              "internalType": "address payable",
              "name": "seller",
              "type": "address"
            },
            {
              "internalType": "address payable",
              "name": "owner",
              "type": "address"
            },
            {
              "internalType": "uint256",
              "name": "price",
              "type": "uint256"
            },
            {
              "internalType": "bool",
              "name": "sold",
              "type": "bool"
            }
          ],
          "internalType": "struct NFTMarketplace.MarketItem[]",
          "name": "",
          "type": "tuple[]"
        }
      ],
      "stateMutability": "view",
      "type": "function"
    },
    {
      "inputs": [
        {
          "internalType": "address",
          "name": "owner",
          "type": "address"
        },
        {
          "internalType": "address",
          "name": "operator",
          "type": "address"
        }
      ],
      "name": "isApprovedForAll",
      "outputs": [
        {
          "internalType": "bool",
          "name": "",
          "type": "bool"
        }
      ],
      "stateMutability": "view",
      "type": "function"
    },
    {
      "inputs": [
        {
          "internalType": "uint256",
          "name": "_tokenId",
          "type": "uint256"
        },
        {
          "internalType": "uint256",
          "name": "_price",
          "type": "uint256"
        }
      ],
      "name": "listToken",
      "outputs": [],
      "stateMutability": "payable",
      "type": "function"
    },
    {
      "inputs": [],
      "name": "name",
      "outputs": [
        {
          "internalType": "string",
          "name": "",
          "type": "string"
        }
      ],
      "stateMutability": "view",
      "type": "function"
    },
    {
      "inputs": [],
      "name": "owner",
      "outputs": [
        {
          "internalType": "address",
          "name": "",
          "type": "address"
        }
      ],
      "stateMutability": "view",
      "type": "function"
    },
    {
      "inputs": [
        {
          "internalType": "uint256",
          "name": "tokenId",
          "type": "uint256"
        }
      ],
      "name": "ownerOf",
      "outputs": [
        {
          "internalType": "address",
          "name": "",
          "type": "address"
        }
      ],
      "stateMutability": "view",
      "type": "function"
    },
    {
      "inputs": [
        {
          "internalType": "address",
          "name": "from",
          "type": "address"
        },
        {
          "internalType": "address",
          "name": "to",
          "type": "address"
        },
        {
          "internalType": "uint256",
          "name": "tokenId",
          "type": "uint256"
        }
      ],
      "name": "safeTransferFrom",
      "outputs": [],
      "stateMutability": "nonpayable",
      "type": "function"
    },
    {
      "inputs": [
        {
          "internalType": "address",
          "name": "from",
          "type": "address"
        },
        {
          "internalType": "address",
          "name": "to",
          "type": "address"
        },
        {
          "internalType": "uint256",
          "name": "tokenId",
          "type": "uint256"
        },
        {
          "internalType": "bytes",
          "name": "data",
          "type": "bytes"
        }
      ],
      "name": "safeTransferFrom",
      "outputs": [],
      "stateMutability": "nonpayable",
      "type": "function"
    },
    {
      "inputs": [
        {
          "internalType": "address",
          "name": "operator",
          "type": "address"
        },
        {
          "internalType": "bool",
          "name": "approved",
          "type": "bool"
        }
      ],
      "name": "setApprovalForAll",
      "outputs": [],
      "stateMutability": "nonpayable",
      "type": "function"
    },
    {
      "inputs": [
        {
          "internalType": "bytes4",
          "name": "interfaceId",
          "type": "bytes4"
        }
      ],
      "name": "supportsInterface",
      "outputs": [
        {
          "internalType": "bool",
          "name": "",
          "type": "bool"
        }
      ],
      "stateMutability": "view",
      "type": "function"
    },
    {
      "inputs": [],
      "name": "symbol",
      "outputs": [
        {
          "internalType": "string",
          "name": "",
          "type": "string"
        }
      ],
      "stateMutability": "view",
      "type": "function"
    },
    {
      "inputs": [
        {
          "internalType": "uint256",
          "name": "tokenId",
          "type": "uint256"
        }
      ],
      "name": "tokenURI",
      "outputs": [
        {
          "internalType": "string",
          "name": "",
          "type": "string"
        }
      ],
      "stateMutability": "view",
      "type": "function"
    },
    {
      "inputs": [
        {
          "internalType": "address",
          "name": "from",
          "type": "address"
        },
        {
          "internalType": "address",
          "name": "to",
          "type": "address"
        },
        {
          "internalType": "uint256",
          "name": "tokenId",
          "type": "uint256"
        }
      ],
      "name": "transferFrom",
      "outputs": [],
      "stateMutability": "nonpayable",
      "type": "function"
    },
    {
      "inputs": [
        {
          "internalType": "uint256",
          "name": "_listingPrice",
          "type": "uint256"
        }
      ],
      "name": "updateListingPrice",
      "outputs": [],
      "stateMutability": "nonpayable",
      "type": "function"
    }
  ],
  "bytecode": "0x6080604052662386f26fc100006009553480156200001c57600080fd5b506040518060400160405280600b81526020017f436f736d69634974656d730000000000000000000000000000000000000000008152506040518060400160405280600381526020017f434954000000000000000000000000000000000000000000000000000000000081525081600090816200009a919062000370565b508060019081620000ac919062000370565b50505033600a60006101000a81548173ffffffffffffffffffffffffffffffffffffffff021916908373ffffffffffffffffffffffffffffffffffffffff16021790555062000457565b600081519050919050565b7f4e487b7100000000000000000000000000000000000000000000000000000000600052604160045260246000fd5b7f4e487b7100000000000000000000000000000000000000000000000000000000600052602260045260246000fd5b600060028204905060018216806200017857607f821691505b6020821081036200018e576200018d62000130565b5b50919050565b60008190508160005260206000209050919050565b60006020601f8301049050919050565b600082821b905092915050565b600060088302620001f87fffffffffffffffffffffffffffffffffffffffffffffffffffffffffffffffff82620001b9565b620002048683620001b9565b95508019841693508086168417925050509392505050565b6000819050919050565b6000819050919050565b6000620002516200024b62000245846200021c565b62000226565b6200021c565b9050919050565b6000819050919050565b6200026d8362000230565b620002856200027c8262000258565b848454620001c6565b825550505050565b600090565b6200029c6200028d565b620002a981848462000262565b505050565b5b81811015620002d157620002c560008262000292565b600181019050620002af565b5050565b601f8211156200032057620002ea8162000194565b620002f584620001a9565b8101602085101562000305578190505b6200031d6200031485620001a9565b830182620002ae565b50505b505050565b600082821c905092915050565b6000620003456000198460080262000325565b1980831691505092915050565b600062000360838362000332565b9150826002028217905092915050565b6200037b82620000f6565b67ffffffffffffffff81111562000397576200039662000101565b5b620003a382546200015f565b620003b0828285620002d5565b600060209050601f831160018114620003e85760008415620003d3578287015190505b620003df858262000352565b8655506200044f565b601f198416620003f88662000194565b60005b828110156200042257848901518255600182019150602085019450602081019050620003fb565b868310156200044257848901516200043e601f89168262000332565b8355505b6001600288020188555050505b505050505050565b613e0180620004676000396000f3fe6080604052600436106101405760003560e01c806370a08231116100b6578063a22cb4651161006f578063a22cb46514610449578063ae677aa314610472578063af5829c61461049b578063b88d4fde146104c6578063c87b56dd146104ef578063e985e9c51461052c57610140565b806370a082311461034e57806372b3b6201461038b57806375c1631d146103bb5780638da5cb5b146103d757806395d89b41146104025780639b1225c41461042d57610140565b806323b872dd1161010857806323b872dd1461023e57806331a0e039146102675780633ff7d4a01461029257806342842e0e146102bd5780636352211e146102e65780636d00e5011461032357610140565b806301ffc9a71461014557806306fdde0314610182578063081812fc146101ad578063095ea7b3146101ea57806312e8558514610213575b600080fd5b34801561015157600080fd5b5061016c60048036038101906101679190612bd1565b610569565b6040516101799190612c19565b60405180910390f35b34801561018e57600080fd5b506101976105ca565b6040516101a49190612cc4565b60405180910390f35b3480156101b957600080fd5b506101d460048036038101906101cf9190612d1c565b61065c565b6040516101e19190612d8a565b60405180910390f35b3480156101f657600080fd5b50610211600480360381019061020c9190612dd1565b610678565b005b34801561021f57600080fd5b5061022861068e565b6040516102359190612e20565b60405180910390f35b34801561024a57600080fd5b5061026560048036038101906102609190612e3b565b610698565b005b34801561027357600080fd5b5061027c61079a565b6040516102899190612fe4565b60405180910390f35b34801561029e57600080fd5b506102a76109b6565b6040516102b49190612e20565b60405180910390f35b3480156102c957600080fd5b506102e460048036038101906102df9190612e3b565b6109c0565b005b3480156102f257600080fd5b5061030d60048036038101906103089190612d1c565b6109e0565b60405161031a9190612d8a565b60405180910390f35b34801561032f57600080fd5b506103386109f2565b6040516103459190612fe4565b60405180910390f35b34801561035a57600080fd5b5061037560048036038101906103709190613006565b610c1e565b6040516103829190612e20565b60405180910390f35b6103a560048036038101906103a09190613168565b610cd8565b6040516103b29190612e20565b60405180910390f35b6103d560048036038101906103d091906131c4565b610d1c565b005b3480156103e357600080fd5b506103ec610f1b565b6040516103f99190612d8a565b60405180910390f35b34801561040e57600080fd5b50610417610f41565b6040516104249190612cc4565b60405180910390f35b61044760048036038101906104429190612d1c565b610fd3565b005b34801561045557600080fd5b50610470600480360381019061046b9190613230565b6113bb565b005b34801561047e57600080fd5b5061049960048036038101906104949190612d1c565b6113d1565b005b3480156104a757600080fd5b506104b061146b565b6040516104bd9190612fe4565b60405180910390f35b3480156104d257600080fd5b506104ed60048036038101906104e89190613311565b611687565b005b3480156104fb57600080fd5b5061051660048036038101906105119190612d1c565b6116a4565b6040516105239190612cc4565b60405180910390f35b34801561053857600080fd5b50610553600480360381019061054e9190613394565b6117b7565b6040516105609190612c19565b60405180910390f35b6000634906490660e01b7bffffffffffffffffffffffffffffffffffffffffffffffffffffffff1916827bffffffffffffffffffffffffffffffffffffffffffffffffffffffff191614806105c357506105c28261184b565b5b9050919050565b6060600080546105d990613403565b80601f016020809104026020016040519081016040528092919081815260200182805461060590613403565b80156106525780601f1061062757610100808354040283529160200191610652565b820191906000526020600020905b81548152906001019060200180831161063557829003601f168201915b5050505050905090565b60006106678261192d565b50610671826119b5565b9050919050565b61068a82826106856119f2565b6119fa565b5050565b6000600954905090565b600073ffffffffffffffffffffffffffffffffffffffff168273ffffffffffffffffffffffffffffffffffffffff160361070a5760006040517f64a0ae920000000000000000000000000000000000000000000000000000000081526004016107019190612d8a565b60405180910390fd5b600061071e83836107196119f2565b611a0c565b90508373ffffffffffffffffffffffffffffffffffffffff168173ffffffffffffffffffffffffffffffffffffffff1614610794578382826040517f64283d7b00000000000000000000000000000000000000000000000000000000815260040161078b93929190613434565b60405180910390fd5b50505050565b60606000600754905060008167ffffffffffffffff8111156107bf576107be61303d565b5b6040519080825280602002602001820160405280156107f857816020015b6107e5612b08565b8152602001906001900390816107dd5790505b5090506000805b838110156109a9573373ffffffffffffffffffffffffffffffffffffffff16600b600083815260200190815260200160002060010160009054906101000a900473ffffffffffffffffffffffffffffffffffffffff1673ffffffffffffffffffffffffffffffffffffffff160361099657600b60008281526020019081526020016000206040518060a0016040529081600082015481526020016001820160009054906101000a900473ffffffffffffffffffffffffffffffffffffffff1673ffffffffffffffffffffffffffffffffffffffff1673ffffffffffffffffffffffffffffffffffffffff1681526020016002820160009054906101000a900473ffffffffffffffffffffffffffffffffffffffff1673ffffffffffffffffffffffffffffffffffffffff1673ffffffffffffffffffffffffffffffffffffffff168152602001600382015481526020016004820160009054906101000a900460ff16151515158152505083838151811061097c5761097b61346b565b5b60200260200101819052508180610992906134c9565b9250505b80806109a1906134c9565b9150506107ff565b5080825281935050505090565b6000600754905090565b6109db83838360405180602001604052806000815250611687565b505050565b60006109eb8261192d565b9050919050565b606060006007549050600060085482610a0b9190613511565b905060008167ffffffffffffffff811115610a2957610a2861303d565b5b604051908082528060200260200182016040528015610a6257816020015b610a4f612b08565b815260200190600190039081610a475790505b5090506000805b84811015610c13573073ffffffffffffffffffffffffffffffffffffffff16600b600083815260200190815260200160002060020160009054906101000a900473ffffffffffffffffffffffffffffffffffffffff1673ffffffffffffffffffffffffffffffffffffffff1603610c0057600b60008281526020019081526020016000206040518060a0016040529081600082015481526020016001820160009054906101000a900473ffffffffffffffffffffffffffffffffffffffff1673ffffffffffffffffffffffffffffffffffffffff1673ffffffffffffffffffffffffffffffffffffffff1681526020016002820160009054906101000a900473ffffffffffffffffffffffffffffffffffffffff1673ffffffffffffffffffffffffffffffffffffffff1673ffffffffffffffffffffffffffffffffffffffff168152602001600382015481526020016004820160009054906101000a900460ff161515151581525050838381518110610be657610be561346b565b5b60200260200101819052508180610bfc906134c9565b9250505b8080610c0b906134c9565b915050610a69565b508194505050505090565b60008073ffffffffffffffffffffffffffffffffffffffff168273ffffffffffffffffffffffffffffffffffffffff1603610c915760006040517f89c62b64000000000000000000000000000000000000000000000000000000008152600401610c889190612d8a565b60405180910390fd5b600360008373ffffffffffffffffffffffffffffffffffffffff1673ffffffffffffffffffffffffffffffffffffffff168152602001908152602001600020549050919050565b60008060076000815480929190610cee906134c9565b919050559050610cfe3382611c26565b610d088185611c44565b610d128184611ca0565b8091505092915050565b600954341015610d61576040517f08c379a0000000000000000000000000000000000000000000000000000000008152600401610d58906135b7565b60405180910390fd5b3373ffffffffffffffffffffffffffffffffffffffff16600b600084815260200190815260200160002060020160009054906101000a900473ffffffffffffffffffffffffffffffffffffffff1673ffffffffffffffffffffffffffffffffffffffff1614610e05576040517f08c379a0000000000000000000000000000000000000000000000000000000008152600401610dfc90613649565b60405180910390fd5b80600b60008481526020019081526020016000206003018190555030600b600084815260200190815260200160002060020160006101000a81548173ffffffffffffffffffffffffffffffffffffffff021916908373ffffffffffffffffffffffffffffffffffffffff16021790555033600b600084815260200190815260200160002060010160006101000a81548173ffffffffffffffffffffffffffffffffffffffff021916908373ffffffffffffffffffffffffffffffffffffffff1602179055506000600b600084815260200190815260200160002060040160006101000a81548160ff02191690831515021790555060086000815480929190600190039190505550610f17333084611ece565b5050565b600a60009054906101000a900473ffffffffffffffffffffffffffffffffffffffff1681565b606060018054610f5090613403565b80601f0160208091040260200160405190810160405280929190818152602001828054610f7c90613403565b8015610fc95780601f10610f9e57610100808354040283529160200191610fc9565b820191906000526020600020905b815481529060010190602001808311610fac57829003601f168201915b5050505050905090565b60001515600b600083815260200190815260200160002060040160009054906101000a900460ff1615151461103d576040517f08c379a0000000000000000000000000000000000000000000000000000000008152600401611034906136db565b60405180910390fd5b6000600b600083815260200190815260200160002060030154905080341461109a576040517f08c379a00000000000000000000000000000000000000000000000000000000081526004016110919061376d565b60405180910390fd5b6000600b600084815260200190815260200160002060010160009054906101000a900473ffffffffffffffffffffffffffffffffffffffff1690506001600b600085815260200190815260200160002060040160006101000a81548160ff0219169083151502179055506000600b600085815260200190815260200160002060010160006101000a81548173ffffffffffffffffffffffffffffffffffffffff021916908373ffffffffffffffffffffffffffffffffffffffff16021790555033600b600085815260200190815260200160002060020160006101000a81548173ffffffffffffffffffffffffffffffffffffffff021916908373ffffffffffffffffffffffffffffffffffffffff160217905550600860008154809291906111c2906134c9565b91905055506111d2303385611ece565b6000600a60009054906101000a900473ffffffffffffffffffffffffffffffffffffffff1673ffffffffffffffffffffffffffffffffffffffff1660095460405161121c906137be565b60006040518083038185875af1925050503d8060008114611259576040519150601f19603f3d011682016040523d82523d6000602084013e61125e565b606091505b50509050806112a2576040517f08c379a000000000000000000000000000000000000000000000000000000000815260040161129990613845565b60405180910390fd5b60008273ffffffffffffffffffffffffffffffffffffffff16346040516112c8906137be565b60006040518083038185875af1925050503d8060008114611305576040519150601f19603f3d011682016040523d82523d6000602084013e61130a565b606091505b505090508061134e576040517f08c379a000000000000000000000000000000000000000000000000000000000815260040161134590613845565b60405180910390fd5b3373ffffffffffffffffffffffffffffffffffffffff168373ffffffffffffffffffffffffffffffffffffffff16867ff17f679675a8ec27a6d50ee808894549d6f0d8b6f8ccaaa9a7ad910eb3050ba0346040516113ac9190612e20565b60405180910390a45050505050565b6113cd6113c66119f2565b838361203b565b5050565b600a60009054906101000a900473ffffffffffffffffffffffffffffffffffffffff1673ffffffffffffffffffffffffffffffffffffffff163373ffffffffffffffffffffffffffffffffffffffff1614611461576040517f08c379a0000000000000000000000000000000000000000000000000000000008152600401611458906138d7565b60405180910390fd5b8060098190555050565b60606000600754905060008167ffffffffffffffff8111156114905761148f61303d565b5b6040519080825280602002602001820160405280156114c957816020015b6114b6612b08565b8152602001906001900390816114ae5790505b5090506000805b8381101561167a573373ffffffffffffffffffffffffffffffffffffffff16600b600083815260200190815260200160002060020160009054906101000a900473ffffffffffffffffffffffffffffffffffffffff1673ffffffffffffffffffffffffffffffffffffffff160361166757600b60008281526020019081526020016000206040518060a0016040529081600082015481526020016001820160009054906101000a900473ffffffffffffffffffffffffffffffffffffffff1673ffffffffffffffffffffffffffffffffffffffff1673ffffffffffffffffffffffffffffffffffffffff1681526020016002820160009054906101000a900473ffffffffffffffffffffffffffffffffffffffff1673ffffffffffffffffffffffffffffffffffffffff1673ffffffffffffffffffffffffffffffffffffffff168152602001600382015481526020016004820160009054906101000a900460ff16151515158152505083838151811061164d5761164c61346b565b5b60200260200101819052508180611663906134c9565b9250505b8080611672906134c9565b9150506114d0565b5080825281935050505090565b611692848484610698565b61169e848484846121aa565b50505050565b60606116af8261192d565b5060006006600084815260200190815260200160002080546116d090613403565b80601f01602080910402602001604051908101604052809291908181526020018280546116fc90613403565b80156117495780601f1061171e57610100808354040283529160200191611749565b820191906000526020600020905b81548152906001019060200180831161172c57829003601f168201915b50505050509050600061175a612361565b9050600081510361176f5781925050506117b2565b6000825111156117a457808260405160200161178c929190613933565b604051602081830303815290604052925050506117b2565b6117ad84612378565b925050505b919050565b6000600560008473ffffffffffffffffffffffffffffffffffffffff1673ffffffffffffffffffffffffffffffffffffffff16815260200190815260200160002060008373ffffffffffffffffffffffffffffffffffffffff1673ffffffffffffffffffffffffffffffffffffffff16815260200190815260200160002060009054906101000a900460ff16905092915050565b60007f80ac58cd000000000000000000000000000000000000000000000000000000007bffffffffffffffffffffffffffffffffffffffffffffffffffffffff1916827bffffffffffffffffffffffffffffffffffffffffffffffffffffffff1916148061191657507f5b5e139f000000000000000000000000000000000000000000000000000000007bffffffffffffffffffffffffffffffffffffffffffffffffffffffff1916827bffffffffffffffffffffffffffffffffffffffffffffffffffffffff1916145b806119265750611925826123e1565b5b9050919050565b6000806119398361244b565b9050600073ffffffffffffffffffffffffffffffffffffffff168173ffffffffffffffffffffffffffffffffffffffff16036119ac57826040517f7e2732890000000000000000000000000000000000000000000000000000000081526004016119a39190612e20565b60405180910390fd5b80915050919050565b60006004600083815260200190815260200160002060009054906101000a900473ffffffffffffffffffffffffffffffffffffffff169050919050565b600033905090565b611a078383836001612488565b505050565b600080611a188461244b565b9050600073ffffffffffffffffffffffffffffffffffffffff168373ffffffffffffffffffffffffffffffffffffffff1614611a5a57611a5981848661264d565b5b600073ffffffffffffffffffffffffffffffffffffffff168173ffffffffffffffffffffffffffffffffffffffff1614611aeb57611a9c600085600080612488565b6001600360008373ffffffffffffffffffffffffffffffffffffffff1673ffffffffffffffffffffffffffffffffffffffff168152602001908152602001600020600082825403925050819055505b600073ffffffffffffffffffffffffffffffffffffffff168573ffffffffffffffffffffffffffffffffffffffff1614611b6e576001600360008773ffffffffffffffffffffffffffffffffffffffff1673ffffffffffffffffffffffffffffffffffffffff168152602001908152602001600020600082825401925050819055505b846002600086815260200190815260200160002060006101000a81548173ffffffffffffffffffffffffffffffffffffffff021916908373ffffffffffffffffffffffffffffffffffffffff160217905550838573ffffffffffffffffffffffffffffffffffffffff168273ffffffffffffffffffffffffffffffffffffffff167fddf252ad1be2c89b69c2b068fc378daa952ba7f163c4a11628f55a4df523b3ef60405160405180910390a4809150509392505050565b611c40828260405180602001604052806000815250612711565b5050565b80600660008481526020019081526020016000209081611c649190613b03565b507ff8e1a15aba9398e019f0b49df1a4fde98ee17ae345cb5f6b5e2c27f5033e8ce782604051611c949190612e20565b60405180910390a15050565b600954341015611ce5576040517f08c379a0000000000000000000000000000000000000000000000000000000008152600401611cdc906135b7565b60405180910390fd5b60008111611d28576040517f08c379a0000000000000000000000000000000000000000000000000000000008152600401611d1f90613c47565b60405180910390fd5b6040518060a001604052808381526020013373ffffffffffffffffffffffffffffffffffffffff1681526020013073ffffffffffffffffffffffffffffffffffffffff16815260200182815260200160001515815250600b60008481526020019081526020016000206000820151816000015560208201518160010160006101000a81548173ffffffffffffffffffffffffffffffffffffffff021916908373ffffffffffffffffffffffffffffffffffffffff16021790555060408201518160020160006101000a81548173ffffffffffffffffffffffffffffffffffffffff021916908373ffffffffffffffffffffffffffffffffffffffff1602179055506060820151816003015560808201518160040160006101000a81548160ff021916908315150217905550905050611e61333084611ece565b3073ffffffffffffffffffffffffffffffffffffffff163373ffffffffffffffffffffffffffffffffffffffff16837fb640004f1d14576d0c209e240cad0410e0d8c0c33a09375861fbadae2588a98d846000604051611ec2929190613c67565b60405180910390a45050565b600073ffffffffffffffffffffffffffffffffffffffff168273ffffffffffffffffffffffffffffffffffffffff1603611f405760006040517f64a0ae92000000000000000000000000000000000000000000000000000000008152600401611f379190612d8a565b60405180910390fd5b6000611f4e83836000611a0c565b9050600073ffffffffffffffffffffffffffffffffffffffff168173ffffffffffffffffffffffffffffffffffffffff1603611fc157816040517f7e273289000000000000000000000000000000000000000000000000000000008152600401611fb89190612e20565b60405180910390fd5b8373ffffffffffffffffffffffffffffffffffffffff168173ffffffffffffffffffffffffffffffffffffffff1614612035578382826040517f64283d7b00000000000000000000000000000000000000000000000000000000815260040161202c93929190613434565b60405180910390fd5b50505050565b600073ffffffffffffffffffffffffffffffffffffffff168273ffffffffffffffffffffffffffffffffffffffff16036120ac57816040517f5b08ba180000000000000000000000000000000000000000000000000000000081526004016120a39190612d8a565b60405180910390fd5b80600560008573ffffffffffffffffffffffffffffffffffffffff1673ffffffffffffffffffffffffffffffffffffffff16815260200190815260200160002060008473ffffffffffffffffffffffffffffffffffffffff1673ffffffffffffffffffffffffffffffffffffffff16815260200190815260200160002060006101000a81548160ff0219169083151502179055508173ffffffffffffffffffffffffffffffffffffffff168373ffffffffffffffffffffffffffffffffffffffff167f17307eab39ab6107e8899845ad3d59bd9653f200f220920489ca2b5937696c318360405161219d9190612c19565b60405180910390a3505050565b60008373ffffffffffffffffffffffffffffffffffffffff163b111561235b578273ffffffffffffffffffffffffffffffffffffffff1663150b7a026121ee6119f2565b8685856040518563ffffffff1660e01b81526004016122109493929190613ce5565b6020604051808303816000875af192505050801561224c57506040513d601f19601f820116820180604052508101906122499190613d46565b60015b6122d0573d806000811461227c576040519150601f19603f3d011682016040523d82523d6000602084013e612281565b606091505b5060008151036122c857836040517f64a0ae920000000000000000000000000000000000000000000000000000000081526004016122bf9190612d8a565b60405180910390fd5b805181602001fd5b63150b7a0260e01b7bffffffffffffffffffffffffffffffffffffffffffffffffffffffff1916817bffffffffffffffffffffffffffffffffffffffffffffffffffffffff19161461235957836040517f64a0ae920000000000000000000000000000000000000000000000000000000081526004016123509190612d8a565b60405180910390fd5b505b50505050565b606060405180602001604052806000815250905090565b60606123838261192d565b50600061238e612361565b905060008151116123ae57604051806020016040528060008152506123d9565b806123b88461272d565b6040516020016123c9929190613933565b6040516020818303038152906040525b915050919050565b60007f01ffc9a7000000000000000000000000000000000000000000000000000000007bffffffffffffffffffffffffffffffffffffffffffffffffffffffff1916827bffffffffffffffffffffffffffffffffffffffffffffffffffffffff1916149050919050565b60006002600083815260200190815260200160002060009054906101000a900473ffffffffffffffffffffffffffffffffffffffff169050919050565b80806124c15750600073ffffffffffffffffffffffffffffffffffffffff168273ffffffffffffffffffffffffffffffffffffffff1614155b156125f55760006124d18461192d565b9050600073ffffffffffffffffffffffffffffffffffffffff168373ffffffffffffffffffffffffffffffffffffffff161415801561253c57508273ffffffffffffffffffffffffffffffffffffffff168173ffffffffffffffffffffffffffffffffffffffff1614155b801561254f575061254d81846117b7565b155b1561259157826040517fa9fbf51f0000000000000000000000000000000000000000000000000000000081526004016125889190612d8a565b60405180910390fd5b81156125f357838573ffffffffffffffffffffffffffffffffffffffff168273ffffffffffffffffffffffffffffffffffffffff167f8c5be1e5ebec7d5bd14f71427d1e84f3dd0314c0f7b2291e5b200ac8c7c3b92560405160405180910390a45b505b836004600085815260200190815260200160002060006101000a81548173ffffffffffffffffffffffffffffffffffffffff021916908373ffffffffffffffffffffffffffffffffffffffff16021790555050505050565b6126588383836127fb565b61270c57600073ffffffffffffffffffffffffffffffffffffffff168373ffffffffffffffffffffffffffffffffffffffff16036126cd57806040517f7e2732890000000000000000000000000000000000000000000000000000000081526004016126c49190612e20565b60405180910390fd5b81816040517f177e802f000000000000000000000000000000000000000000000000000000008152600401612703929190613d73565b60405180910390fd5b505050565b61271b83836128bc565b61272860008484846121aa565b505050565b60606000600161273c846129b5565b01905060008167ffffffffffffffff81111561275b5761275a61303d565b5b6040519080825280601f01601f19166020018201604052801561278d5781602001600182028036833780820191505090505b509050600082602001820190505b6001156127f0578080600190039150507f3031323334353637383961626364656600000000000000000000000000000000600a86061a8153600a85816127e4576127e3613d9c565b5b0494506000850361279b575b819350505050919050565b60008073ffffffffffffffffffffffffffffffffffffffff168373ffffffffffffffffffffffffffffffffffffffff16141580156128b357508273ffffffffffffffffffffffffffffffffffffffff168473ffffffffffffffffffffffffffffffffffffffff161480612874575061287384846117b7565b5b806128b257508273ffffffffffffffffffffffffffffffffffffffff1661289a836119b5565b73ffffffffffffffffffffffffffffffffffffffff16145b5b90509392505050565b600073ffffffffffffffffffffffffffffffffffffffff168273ffffffffffffffffffffffffffffffffffffffff160361292e5760006040517f64a0ae920000000000000000000000000000000000000000000000000000000081526004016129259190612d8a565b60405180910390fd5b600061293c83836000611a0c565b9050600073ffffffffffffffffffffffffffffffffffffffff168173ffffffffffffffffffffffffffffffffffffffff16146129b05760006040517f73c6ac6e0000000000000000000000000000000000000000000000000000000081526004016129a79190612d8a565b60405180910390fd5b505050565b600080600090507a184f03e93ff9f4daa797ed6e38ed64bf6a1f0100000000000000008310612a13577a184f03e93ff9f4daa797ed6e38ed64bf6a1f0100000000000000008381612a0957612a08613d9c565b5b0492506040810190505b6d04ee2d6d415b85acef81000000008310612a50576d04ee2d6d415b85acef81000000008381612a4657612a45613d9c565b5b0492506020810190505b662386f26fc100008310612a7f57662386f26fc100008381612a7557612a74613d9c565b5b0492506010810190505b6305f5e1008310612aa8576305f5e1008381612a9e57612a9d613d9c565b5b0492506008810190505b6127108310612acd576127108381612ac357612ac2613d9c565b5b0492506004810190505b60648310612af05760648381612ae657612ae5613d9c565b5b0492506002810190505b600a8310612aff576001810190505b80915050919050565b6040518060a0016040528060008152602001600073ffffffffffffffffffffffffffffffffffffffff168152602001600073ffffffffffffffffffffffffffffffffffffffff168152602001600081526020016000151581525090565b6000604051905090565b600080fd5b600080fd5b60007fffffffff0000000000000000000000000000000000000000000000000000000082169050919050565b612bae81612b79565b8114612bb957600080fd5b50565b600081359050612bcb81612ba5565b92915050565b600060208284031215612be757612be6612b6f565b5b6000612bf584828501612bbc565b91505092915050565b60008115159050919050565b612c1381612bfe565b82525050565b6000602082019050612c2e6000830184612c0a565b92915050565b600081519050919050565b600082825260208201905092915050565b60005b83811015612c6e578082015181840152602081019050612c53565b60008484015250505050565b6000601f19601f8301169050919050565b6000612c9682612c34565b612ca08185612c3f565b9350612cb0818560208601612c50565b612cb981612c7a565b840191505092915050565b60006020820190508181036000830152612cde8184612c8b565b905092915050565b6000819050919050565b612cf981612ce6565b8114612d0457600080fd5b50565b600081359050612d1681612cf0565b92915050565b600060208284031215612d3257612d31612b6f565b5b6000612d4084828501612d07565b91505092915050565b600073ffffffffffffffffffffffffffffffffffffffff82169050919050565b6000612d7482612d49565b9050919050565b612d8481612d69565b82525050565b6000602082019050612d9f6000830184612d7b565b92915050565b612dae81612d69565b8114612db957600080fd5b50565b600081359050612dcb81612da5565b92915050565b60008060408385031215612de857612de7612b6f565b5b6000612df685828601612dbc565b9250506020612e0785828601612d07565b9150509250929050565b612e1a81612ce6565b82525050565b6000602082019050612e356000830184612e11565b92915050565b600080600060608486031215612e5457612e53612b6f565b5b6000612e6286828701612dbc565b9350506020612e7386828701612dbc565b9250506040612e8486828701612d07565b9150509250925092565b600081519050919050565b600082825260208201905092915050565b6000819050602082019050919050565b612ec381612ce6565b82525050565b6000612ed482612d49565b9050919050565b612ee481612ec9565b82525050565b612ef381612bfe565b82525050565b60a082016000820151612f0f6000850182612eba565b506020820151612f226020850182612edb565b506040820151612f356040850182612edb565b506060820151612f486060850182612eba565b506080820151612f5b6080850182612eea565b50505050565b6000612f6d8383612ef9565b60a08301905092915050565b6000602082019050919050565b6000612f9182612e8e565b612f9b8185612e99565b9350612fa683612eaa565b8060005b83811015612fd7578151612fbe8882612f61565b9750612fc983612f79565b925050600181019050612faa565b5085935050505092915050565b60006020820190508181036000830152612ffe8184612f86565b905092915050565b60006020828403121561301c5761301b612b6f565b5b600061302a84828501612dbc565b91505092915050565b600080fd5b600080fd5b7f4e487b7100000000000000000000000000000000000000000000000000000000600052604160045260246000fd5b61307582612c7a565b810181811067ffffffffffffffff821117156130945761309361303d565b5b80604052505050565b60006130a7612b65565b90506130b3828261306c565b919050565b600067ffffffffffffffff8211156130d3576130d261303d565b5b6130dc82612c7a565b9050602081019050919050565b82818337600083830152505050565b600061310b613106846130b8565b61309d565b90508281526020810184848401111561312757613126613038565b5b6131328482856130e9565b509392505050565b600082601f83011261314f5761314e613033565b5b813561315f8482602086016130f8565b91505092915050565b6000806040838503121561317f5761317e612b6f565b5b600083013567ffffffffffffffff81111561319d5761319c612b74565b5b6131a98582860161313a565b92505060206131ba85828601612d07565b9150509250929050565b600080604083850312156131db576131da612b6f565b5b60006131e985828601612d07565b92505060206131fa85828601612d07565b9150509250929050565b61320d81612bfe565b811461321857600080fd5b50565b60008135905061322a81613204565b92915050565b6000806040838503121561324757613246612b6f565b5b600061325585828601612dbc565b92505060206132668582860161321b565b9150509250929050565b600067ffffffffffffffff82111561328b5761328a61303d565b5b61329482612c7a565b9050602081019050919050565b60006132b46132af84613270565b61309d565b9050828152602081018484840111156132d0576132cf613038565b5b6132db8482856130e9565b509392505050565b600082601f8301126132f8576132f7613033565b5b81356133088482602086016132a1565b91505092915050565b6000806000806080858703121561332b5761332a612b6f565b5b600061333987828801612dbc565b945050602061334a87828801612dbc565b935050604061335b87828801612d07565b925050606085013567ffffffffffffffff81111561337c5761337b612b74565b5b613388878288016132e3565b91505092959194509250565b600080604083850312156133ab576133aa612b6f565b5b60006133b985828601612dbc565b92505060206133ca85828601612dbc565b9150509250929050565b7f4e487b7100000000000000000000000000000000000000000000000000000000600052602260045260246000fd5b6000600282049050600182168061341b57607f821691505b60208210810361342e5761342d6133d4565b5b50919050565b60006060820190506134496000830186612d7b565b6134566020830185612e11565b6134636040830184612d7b565b949350505050565b7f4e487b7100000000000000000000000000000000000000000000000000000000600052603260045260246000fd5b7f4e487b7100000000000000000000000000000000000000000000000000000000600052601160045260246000fd5b60006134d482612ce6565b91507fffffffffffffffffffffffffffffffffffffffffffffffffffffffffffffffff82036135065761350561349a565b5b600182019050919050565b600061351c82612ce6565b915061352783612ce6565b925082820390508181111561353f5761353e61349a565b5b92915050565b7f4e46544d61726b6574706c6163653a204d61726b6574206c697374696e67206660008201527f6565206973206869676865720000000000000000000000000000000000000000602082015250565b60006135a1602c83612c3f565b91506135ac82613545565b604082019050919050565b600060208201905081810360008301526135d081613594565b9050919050565b7f4e46544d61726b6574706c6163653a204f6e6c79206974656d206f776e65722060008201527f63616e20706572666f726d2074686973206f7065726174696f6e000000000000602082015250565b6000613633603a83612c3f565b915061363e826135d7565b604082019050919050565b6000602082019050818103600083015261366281613626565b9050919050565b7f4e46544d61726b6574706c6163653a204974656d206e6f7420666f722073616c60008201527f6500000000000000000000000000000000000000000000000000000000000000602082015250565b60006136c5602183612c3f565b91506136d082613669565b604082019050919050565b600060208201905081810360008301526136f4816136b8565b9050919050565b7f4e46544d61726b6574706c6163653a20506c65617365207375626d697420746860008201527f652061736b696e67207072696365000000000000000000000000000000000000602082015250565b6000613757602e83612c3f565b9150613762826136fb565b604082019050919050565b600060208201905081810360008301526137868161374a565b9050919050565b600081905092915050565b50565b60006137a860008361378d565b91506137b382613798565b600082019050919050565b60006137c98261379b565b9150819050919050565b7f4e46544d61726b6574706c6163653a205472616e73616374696f6e206469642060008201527f6e6f7420676f207468726f756768000000000000000000000000000000000000602082015250565b600061382f602e83612c3f565b915061383a826137d3565b604082019050919050565b6000602082019050818103600083015261385e81613822565b9050919050565b7f4e46544d61726b6574706c6163653a204f6e6c79206f776e657220697320706560008201527f726d697474656400000000000000000000000000000000000000000000000000602082015250565b60006138c1602783612c3f565b91506138cc82613865565b604082019050919050565b600060208201905081810360008301526138f0816138b4565b9050919050565b600081905092915050565b600061390d82612c34565b61391781856138f7565b9350613927818560208601612c50565b80840191505092915050565b600061393f8285613902565b915061394b8284613902565b91508190509392505050565b60008190508160005260206000209050919050565b60006020601f8301049050919050565b600082821b905092915050565b6000600883026139b97fffffffffffffffffffffffffffffffffffffffffffffffffffffffffffffffff8261397c565b6139c3868361397c565b95508019841693508086168417925050509392505050565b6000819050919050565b6000613a006139fb6139f684612ce6565b6139db565b612ce6565b9050919050565b6000819050919050565b613a1a836139e5565b613a2e613a2682613a07565b848454613989565b825550505050565b600090565b613a43613a36565b613a4e818484613a11565b505050565b5b81811015613a7257613a67600082613a3b565b600181019050613a54565b5050565b601f821115613ab757613a8881613957565b613a918461396c565b81016020851015613aa0578190505b613ab4613aac8561396c565b830182613a53565b50505b505050565b600082821c905092915050565b6000613ada60001984600802613abc565b1980831691505092915050565b6000613af38383613ac9565b9150826002028217905092915050565b613b0c82612c34565b67ffffffffffffffff811115613b2557613b2461303d565b5b613b2f8254613403565b613b3a828285613a76565b600060209050601f831160018114613b6d5760008415613b5b578287015190505b613b658582613ae7565b865550613bcd565b601f198416613b7b86613957565b60005b82811015613ba357848901518255600182019150602085019450602081019050613b7e565b86831015613bc05784890151613bbc601f891682613ac9565b8355505b6001600288020188555050505b505050505050565b7f4e46544d61726b6574706c6163653a205072696365206d75737420626520677260008201527f6561746572207468616e20300000000000000000000000000000000000000000602082015250565b6000613c31602c83612c3f565b9150613c3c82613bd5565b604082019050919050565b60006020820190508181036000830152613c6081613c24565b9050919050565b6000604082019050613c7c6000830185612e11565b613c896020830184612c0a565b9392505050565b600081519050919050565b600082825260208201905092915050565b6000613cb782613c90565b613cc18185613c9b565b9350613cd1818560208601612c50565b613cda81612c7a565b840191505092915050565b6000608082019050613cfa6000830187612d7b565b613d076020830186612d7b565b613d146040830185612e11565b8181036060830152613d268184613cac565b905095945050505050565b600081519050613d4081612ba5565b92915050565b600060208284031215613d5c57613d5b612b6f565b5b6000613d6a84828501613d31565b91505092915050565b6000604082019050613d886000830185612d7b565b613d956020830184612e11565b9392505050565b7f4e487b7100000000000000000000000000000000000000000000000000000000600052601260045260246000fdfea26469706673582212202c6fb30be0642ff477ffb0ca1b417662e361e7de4768a8ec4284d3ba624b5d6f64736f6c63430008140033",
  "linkReferences": {},
  "deployedLinkReferences": {}
}